{
  "abi": [
    {
      "inputs": [],
      "name": "sayMyName",
      "outputs": [
        {
          "internalType": "string",
          "name": "",
          "type": "string"
        }
      ],
      "stateMutability": "pure",
      "type": "function"
    },
    {
      "inputs": [
        {
          "internalType": "contract Monaco",
          "name": "monaco",
          "type": "address"
        },
        {
          "components": [
            {
              "internalType": "uint32",
              "name": "balance",
              "type": "uint32"
            },
            {
              "internalType": "uint32",
              "name": "speed",
              "type": "uint32"
            },
            {
              "internalType": "uint32",
              "name": "y",
              "type": "uint32"
            },
            {
              "internalType": "uint32",
              "name": "shield",
              "type": "uint32"
            },
            {
              "internalType": "contract ICar",
              "name": "car",
              "type": "address"
            }
          ],
          "internalType": "struct Monaco.CarData[]",
          "name": "allCars",
          "type": "tuple[]"
        },
        {
          "internalType": "uint256[]",
          "name": "",
          "type": "uint256[]"
        },
        {
          "internalType": "uint256",
          "name": "ourCarIndex",
          "type": "uint256"
        }
      ],
      "name": "takeYourTurn",
      "outputs": [],
      "stateMutability": "nonpayable",
      "type": "function"
    }
  ],
  "bytecode": {
    "object": "0x608060405234801561001057600080fd5b5061095a806100206000396000f3fe608060405234801561001057600080fd5b50600436106100365760003560e01c8063966474481461003b578063e2523a6914610050575b600080fd5b61004e61004936600461066c565b610098565b005b604080518082018252600a81527f4578616d706c65436172000000000000000000000000000000000000000000006020820152905161008f9190610728565b60405180910390f35b60008585838181106100ac576100ac610794565b905060a002018036038101906100c291906107dc565b6040517f503a69820000000000000000000000000000000000000000000000000000000081526003600482015290915073ffffffffffffffffffffffffffffffffffffffff88169063503a698290602401602060405180830381865afa158015610130573d6000803e3d6000fd5b505050506040513d601f19601f820116820180604052508101906101549190610893565b815163ffffffff161115610213576040517f361401f40000000000000000000000000000000000000000000000000000000081526003600482015273ffffffffffffffffffffffffffffffffffffffff88169063361401f4906024016020604051808303816000875af11580156101cf573d6000803e3d6000fd5b505050506040513d601f19601f820116820180604052508101906101f39190610893565b62ffffff168160000181815161020991906108db565b63ffffffff169052505b8461021f8360016108ff565b1480156102c057506040517f647ba7950000000000000000000000000000000000000000000000000000000081526001600482015273ffffffffffffffffffffffffffffffffffffffff88169063647ba79590602401602060405180830381865afa158015610292573d6000803e3d6000fd5b505050506040513d601f19601f820116820180604052508101906102b69190610893565b815163ffffffff16115b1561035d576040517f1c7831bd0000000000000000000000000000000000000000000000000000000081526001600482015273ffffffffffffffffffffffffffffffffffffffff881690631c7831bd906024015b6020604051808303816000875af1158015610333573d6000803e3d6000fd5b505050506040513d601f19601f820116820180604052508101906103579190610893565b506105f2565b81158015906103ae5750602081015163ffffffff16868661037f600186610918565b81811061038e5761038e610794565b905060a0020160200160208101906103a6919061092b565b63ffffffff16115b801561044e57506040517f54192e410000000000000000000000000000000000000000000000000000000081526001600482015273ffffffffffffffffffffffffffffffffffffffff8816906354192e4190602401602060405180830381865afa158015610420573d6000803e3d6000fd5b505050506040513d601f19601f820116820180604052508101906104449190610893565b815163ffffffff16115b156104a6576040517f4e7444c40000000000000000000000000000000000000000000000000000000081526001600482015273ffffffffffffffffffffffffffffffffffffffff881690634e7444c490602401610314565b806060015163ffffffff166000036105f2578115801561055a57506040517f597869660000000000000000000000000000000000000000000000000000000081526001600482015273ffffffffffffffffffffffffffffffffffffffff881690635978696690602401602060405180830381865afa15801561052c573d6000803e3d6000fd5b505050506040513d601f19601f820116820180604052508101906105509190610893565b815163ffffffff16115b156105f2576040517f728313c90000000000000000000000000000000000000000000000000000000081526001600482015273ffffffffffffffffffffffffffffffffffffffff88169063728313c9906024016020604051808303816000875af11580156105cc573d6000803e3d6000fd5b505050506040513d601f19601f820116820180604052508101906105f09190610893565b505b50505050505050565b73ffffffffffffffffffffffffffffffffffffffff8116811461061d57600080fd5b50565b60008083601f84011261063257600080fd5b50813567ffffffffffffffff81111561064a57600080fd5b6020830191508360208260051b850101111561066557600080fd5b9250929050565b6000806000806000806080878903121561068557600080fd5b8635610690816105fb565b9550602087013567ffffffffffffffff808211156106ad57600080fd5b818901915089601f8301126106c157600080fd5b8135818111156106d057600080fd5b8a602060a0830285010111156106e557600080fd5b60208301975080965050604089013591508082111561070357600080fd5b5061071089828a01610620565b979a9699509497949695606090950135949350505050565b600060208083528351808285015260005b8181101561075557858101830151858201604001528201610739565b5060006040828601015260407fffffffffffffffffffffffffffffffffffffffffffffffffffffffffffffffe0601f8301168501019250505092915050565b7f4e487b7100000000000000000000000000000000000000000000000000000000600052603260045260246000fd5b803563ffffffff811681146107d757600080fd5b919050565b600060a082840312156107ee57600080fd5b60405160a0810181811067ffffffffffffffff82111715610838577f4e487b7100000000000000000000000000000000000000000000000000000000600052604160045260246000fd5b604052610844836107c3565b8152610852602084016107c3565b6020820152610863604084016107c3565b6040820152610874606084016107c3565b60608201526080830135610887816105fb565b60808201529392505050565b6000602082840312156108a557600080fd5b5051919050565b7f4e487b7100000000000000000000000000000000000000000000000000000000600052601160045260246000fd5b63ffffffff8281168282160390808211156108f8576108f86108ac565b5092915050565b80820180821115610912576109126108ac565b92915050565b81810381811115610912576109126108ac565b60006020828403121561093d57600080fd5b610946826107c3565b939250505056fea164736f6c6343000811000a",
    "linkReferences": {}
  },
  "methodIdentifiers": {
    "sayMyName()": "e2523a69",
    "takeYourTurn(address,(uint32,uint32,uint32,uint32,address)[],uint256[],uint256)": "96647448"
  },
  "id": 18
}