{
  "abi": [
    {
      "inputs": [],
      "name": "name",
      "outputs": [
        {
          "internalType": "string",
          "name": "",
          "type": "string"
        }
      ],
      "stateMutability": "pure",
      "type": "function"
    },
    {
      "inputs": [],
      "name": "sayMyName",
      "outputs": [
        {
          "internalType": "string",
          "name": "",
          "type": "string"
        }
      ],
      "stateMutability": "pure",
      "type": "function"
    },
    {
      "inputs": [
        {
          "internalType": "contract Monaco",
          "name": "monaco",
          "type": "address"
        },
        {
          "components": [
            {
              "internalType": "uint32",
              "name": "balance",
              "type": "uint32"
            },
            {
              "internalType": "uint32",
              "name": "speed",
              "type": "uint32"
            },
            {
              "internalType": "uint32",
              "name": "y",
              "type": "uint32"
            },
            {
              "internalType": "uint32",
              "name": "shield",
              "type": "uint32"
            },
            {
              "internalType": "contract ICar",
              "name": "car",
              "type": "address"
            }
          ],
          "internalType": "struct Monaco.CarData[]",
          "name": "allCars",
          "type": "tuple[]"
        },
        {
          "internalType": "uint256[]",
          "name": "",
          "type": "uint256[]"
        },
        {
          "internalType": "uint256",
          "name": "ourCarIndex",
          "type": "uint256"
        }
      ],
      "name": "takeYourTurn",
      "outputs": [],
      "stateMutability": "nonpayable",
      "type": "function"
    }
  ],
  "bytecode": {
    "object": "0x608060405234801561001057600080fd5b50611cbb806100206000396000f3fe608060405234801561001057600080fd5b50600436106100415760003560e01c806306fdde0314610046578063966474481461008e578063e2523a6914610046575b600080fd5b604080518082018252600581527f63303030720000000000000000000000000000000000000000000000000000006020820152905161008591906118e0565b60405180910390f35b6100a161009c3660046119bd565b6100a3565b005b60008585838181106100b7576100b7611a79565b905060a002018036038101906100cd9190611ac1565b9050610352816040015163ffffffff161180156101aa57508673ffffffffffffffffffffffffffffffffffffffff1663503a6982826020015183604001516101159190611ba7565b610121906103e8611bcb565b6040517fffffffff0000000000000000000000000000000000000000000000000000000060e084901b16815263ffffffff919091166004820152602401602060405180830381865afa15801561017b573d6000803e3d6000fd5b505050506040513d601f19601f8201168201806040525081019061019f9190611be8565b815163ffffffff1610155b15610272578673ffffffffffffffffffffffffffffffffffffffff1663361401f4826020015183604001516101df9190611ba7565b6101eb906103e8611bcb565b6040517fffffffff0000000000000000000000000000000000000000000000000000000060e084901b16815263ffffffff9190911660048201526024016020604051808303816000875af1158015610247573d6000803e3d6000fd5b505050506040513d601f19601f8201168201806040525081019061026b9190611be8565b50506118d8565b6040517f54192e410000000000000000000000000000000000000000000000000000000081526001600482015260009073ffffffffffffffffffffffffffffffffffffffff8916906354192e4190602401602060405180830381865afa1580156102e0573d6000803e3d6000fd5b505050506040513d601f19601f820116820180604052508101906103049190611be8565b90506101908110801561031657508215155b8015610352575060088787600081811061033257610332611a79565b905060a00201604001602081019061034a9190611c01565b63ffffffff16115b801561038c57508686600181811061036c5761036c611a79565b905060a0020160400160208101906103849190611c01565b63ffffffff16155b80156103c65750868660028181106103a6576103a6611a79565b905060a0020160400160208101906103be9190611c01565b63ffffffff16155b15610468576040517f4e7444c40000000000000000000000000000000000000000000000000000000081526001600482015273ffffffffffffffffffffffffffffffffffffffff891690634e7444c4906024015b6020604051808303816000875af1158015610439573d6000803e3d6000fd5b505050506040513d601f19601f8201168201806040525081019061045d9190611be8565b50613a999050610608565b806000036104c3576040517f4e7444c40000000000000000000000000000000000000000000000000000000081526001600482015273ffffffffffffffffffffffffffffffffffffffff891690634e7444c49060240161041a565b8260011480156104da5750815163ffffffff168111155b801561054d57506103e8878760008181106104f7576104f7611a79565b905060a00201602001602081019061050f9190611c01565b8888600081811061052257610522611a79565b905060a00201604001602081019061053a9190611c01565b6105449190611ba7565b63ffffffff1610155b15610608576040517f4e7444c40000000000000000000000000000000000000000000000000000000081526001600482015273ffffffffffffffffffffffffffffffffffffffff891690634e7444c4906024016020604051808303816000875af11580156105bf573d6000803e3d6000fd5b505050506040513d601f19601f820116820180604052508101906105e39190611be8565b62ffffff16826000018181516105f99190611bcb565b63ffffffff16905250613a9990505b8215801590610647575060c88787600081811061062757610627611a79565b905060a00201604001602081019061063f9190611c01565b63ffffffff16105b15610705576003826020015163ffffffff161080156106675750613a9881105b1561026b576040517f361401f40000000000000000000000000000000000000000000000000000000081526002600482015273ffffffffffffffffffffffffffffffffffffffff89169063361401f4906024016020604051808303816000875af11580156106d9573d6000803e3d6000fd5b505050506040513d601f19601f820116820180604052508101906106fd9190611be8565b5050506118d8565b6103528787600081811061071b5761071b611a79565b905060a0020160400160208101906107339190611c01565b63ffffffff161115610d5257821580156107865750816020015163ffffffff168787600181811061076657610766611a79565b905060a00201602001602081019061077e9190611c01565b63ffffffff16115b806107ca5750816020015163ffffffff16878760028181106107aa576107aa611a79565b905060a0020160200160208101906107c29190611c01565b63ffffffff16115b15610a87576000878760028181106107e4576107e4611a79565b905060a0020160200160208101906107fc9190611c01565b63ffffffff168888600181811061081557610815611a79565b905060a00201602001602081019061082d9190611c01565b63ffffffff1611610868578787600281811061084b5761084b611a79565b905060a0020160200160208101906108639190611c01565b610893565b8787600181811061087b5761087b611a79565b905060a0020160200160208101906108939190611c01565b63ffffffff1690508873ffffffffffffffffffffffffffffffffffffffff1663503a6982846020015163ffffffff16836108cd9190611c23565b6040518263ffffffff1660e01b81526004016108eb91815260200190565b602060405180830381865afa158015610908573d6000803e3d6000fd5b505050506040513d601f19601f8201168201806040525081019061092c9190611be8565b835163ffffffff16106109d2578873ffffffffffffffffffffffffffffffffffffffff1663361401f4846020015163ffffffff168361096b9190611c23565b6040518263ffffffff1660e01b815260040161098991815260200190565b6020604051808303816000875af11580156109a8573d6000803e3d6000fd5b505050506040513d601f19601f820116820180604052508101906109cc9190611be8565b506106fd565b6040517f361401f40000000000000000000000000000000000000000000000000000000081526005600482015273ffffffffffffffffffffffffffffffffffffffff8a169063361401f4906024016020604051808303816000875af1925050508015610a79575060408051601f3d9081017fffffffffffffffffffffffffffffffffffffffffffffffffffffffffffffffe0168201909252610a7691810190611be8565b60015b156106fd57505050506118d8565b8215610d525760008787610a9c600187611c23565b818110610aab57610aab611a79565b905060a002016020016020810190610ac39190611c01565b63ffffffff16905081836000015163ffffffff1610158015610ae657506107d082105b8015610b115750826020015163ffffffff1681118015610b065750600481115b80610b115750600881115b15610bcc576040517f4e7444c40000000000000000000000000000000000000000000000000000000081526001600482015273ffffffffffffffffffffffffffffffffffffffff8a1690634e7444c4906024016020604051808303816000875af1158015610b83573d6000803e3d6000fd5b505050506040513d601f19601f82011682018060405250810190610ba79190611be8565b62ffffff1683600001818151610bbd9190611bcb565b63ffffffff16905250613a9991505b6040517f503a69820000000000000000000000000000000000000000000000000000000081526007600482015260009073ffffffffffffffffffffffffffffffffffffffff8b169063503a698290602401602060405180830381865afa158015610c3a573d6000803e3d6000fd5b505050506040513d601f19601f82011682018060405250810190610c5e9190611be8565b905080846000015163ffffffff1610158015610c7b57506103e881105b15610d4f576040517f361401f40000000000000000000000000000000000000000000000000000000081526007600482015273ffffffffffffffffffffffffffffffffffffffff8b169063361401f4906024016020604051808303816000875af1158015610ced573d6000803e3d6000fd5b505050506040513d601f19601f82011682018060405250810190610d119190611be8565b62ffffff1684600001818151610d279190611bcb565b63ffffffff1690525060208401805160079190610d45908390611ba7565b63ffffffff169052505b50505b60008360020361104e5760c888886001818110610d7157610d71611a79565b610d8792602060a0909202019081019150611c01565b63ffffffff161080610e06575061033988886000818110610daa57610daa611a79565b905060a002016040016020810190610dc29190611c01565b63ffffffff16118015610e0657506102ee88886001818110610de657610de6611a79565b905060a002016040016020810190610dfe9190611c01565b63ffffffff16105b15610f35578873ffffffffffffffffffffffffffffffffffffffff1663503a698284604001518560200151610e3b9190611ba7565b8a8a6001818110610e4e57610e4e611a79565b905060a002016040016020810190610e669190611c01565b8b8b6001818110610e7957610e79611a79565b905060a002016020016020810190610e919190611c01565b610e9c906001611ba7565b610ea69190611ba7565b610eb09190611bcb565b6040517fffffffff0000000000000000000000000000000000000000000000000000000060e084901b16815263ffffffff919091166004820152602401602060405180830381865afa158015610f0a573d6000803e3d6000fd5b505050506040513d601f19601f82011682018060405250810190610f2e9190611be8565b905061104e565b826020015163ffffffff1688886001818110610f5357610f53611a79565b905060a002016020016020810190610f6b9190611c01565b63ffffffff16111561104e578873ffffffffffffffffffffffffffffffffffffffff1663503a698284602001518a8a6001818110610fab57610fab611a79565b905060a002016020016020810190610fc39190611c01565b610fcd9190611bcb565b6040517fffffffff0000000000000000000000000000000000000000000000000000000060e084901b16815263ffffffff919091166004820152602401602060405180830381865afa158015611027573d6000803e3d6000fd5b505050506040513d601f19601f8201168201806040525081019061104b9190611be8565b90505b60008888600081811061106357611063611a79565b905060a00201602001602081019061107b9190611c01565b63ffffffff1690508460011480156110935750600381115b80156110a65750835163ffffffff168311155b156112f65761012c831080156110da575060208401516110c7906006611ba7565b63ffffffff168111806110da5750601881115b15611194576040517f4e7444c40000000000000000000000000000000000000000000000000000000081526001600482015273ffffffffffffffffffffffffffffffffffffffff8b1690634e7444c4906024016020604051808303816000875af115801561114c573d6000803e3d6000fd5b505050506040513d601f19601f820116820180604052508101906111709190611be8565b62ffffff16846000018181516111869190611bcb565b63ffffffff169052506112f6565b6103e883108015611240575060238111806111ee5750603284604001518a8a60008181106111c4576111c4611a79565b905060a0020160400160208101906111dc9190611c01565b6111e69190611bcb565b63ffffffff16115b8061122a57506103b68989600081811061120a5761120a611a79565b905060a0020160400160208101906112229190611c01565b63ffffffff16115b8061124057506103e8846000015163ffffffff16115b156112f6576040517f4e7444c40000000000000000000000000000000000000000000000000000000081526001600482015273ffffffffffffffffffffffffffffffffffffffff8b1690634e7444c4906024016020604051808303816000875af11580156112b2573d6000803e3d6000fd5b505050506040513d601f19601f820116820180604052508101906112d69190611be8565b62ffffff16846000018181516112ec9190611bcb565b63ffffffff169052505b6103208989600081811061130c5761130c611a79565b905060a0020160400160208101906113249190611c01565b63ffffffff1610611337576101f461133b565b6107d05b61ffff16846000015163ffffffff1611801561136157506006846020015163ffffffff16105b1561147d5773ffffffffffffffffffffffffffffffffffffffff8a1663361401f4861561138f576004611392565b60025b6040517fffffffff0000000000000000000000000000000000000000000000000000000060e084901b16815260ff90911660048201526024016020604051808303816000875af1925050508015611424575060408051601f3d9081017fffffffffffffffffffffffffffffffffffffffffffffffffffffffffffffffe016820190925261142191810190611be8565b60015b1561177c578062ffffff16856000018181516114409190611bcb565b63ffffffff169052508515611456576004611459565b60025b60ff168560200181815161146d9190611ba7565b63ffffffff1690525061177c9050565b81158015906114925750835163ffffffff1682105b801561149f57506103e882105b156115b8576000603283106114b55760026114b8565b60015b60ff1685602001518b8b60018181106114d3576114d3611a79565b905060a0020160200160208101906114eb9190611c01565b6114f59190611bcb565b6114ff9190611c3c565b63ffffffff1690508a73ffffffffffffffffffffffffffffffffffffffff1663361401f4826040518263ffffffff1660e01b815260040161154291815260200190565b6020604051808303816000875af1158015611561573d6000803e3d6000fd5b505050506040513d601f19601f820116820180604052508101906115859190611be8565b62ffffff168560000181815161159b9190611bcb565b63ffffffff1690525060208501805182919061146d908390611ba7565b6000610320856040015163ffffffff16116115d45760026115d7565b60055b60ff16905060008b73ffffffffffffffffffffffffffffffffffffffff1663503a6982836040518263ffffffff1660e01b815260040161161991815260200190565b602060405180830381865afa158015611636573d6000803e3d6000fd5b505050506040513d601f19601f8201168201806040525081019061165a9190611be8565b905060c8866000015163ffffffff1611801561167c5750855163ffffffff1681105b80156116a65750610320866040015163ffffffff161161169d5760186116a0565b60325b60ff1681105b15611779576040517f361401f40000000000000000000000000000000000000000000000000000000081526004810183905273ffffffffffffffffffffffffffffffffffffffff8d169063361401f4906024016020604051808303816000875af1158015611718573d6000803e3d6000fd5b505050506040513d601f19601f8201168201806040525081019061173c9190611be8565b62ffffff16866000018181516117529190611bcb565b63ffffffff1690525060208601805183919061176f908390611ba7565b63ffffffff169052505b50505b84158015906117bc57506102bc8989600081811061179c5761179c611a79565b905060a0020160400160208101906117b49190611c01565b63ffffffff16115b801561180a5750888860008181106117d6576117d6611a79565b6117ec92602060a0909202019081019150611c01565b6117f7906002611c86565b63ffffffff16846000015163ffffffff16115b8015611820575060dc846000015163ffffffff16115b156118d3576040517f361401f40000000000000000000000000000000000000000000000000000000081526005600482015273ffffffffffffffffffffffffffffffffffffffff8b169063361401f4906024016020604051808303816000875af19250505080156118cc575060408051601f3d9081017fffffffffffffffffffffffffffffffffffffffffffffffffffffffffffffffe01682019092526118c991810190611be8565b60015b156118d357505b505050505b505050505050565b600060208083528351808285015260005b8181101561190d578581018301518582016040015282016118f1565b5060006040828601015260407fffffffffffffffffffffffffffffffffffffffffffffffffffffffffffffffe0601f8301168501019250505092915050565b73ffffffffffffffffffffffffffffffffffffffff8116811461196e57600080fd5b50565b60008083601f84011261198357600080fd5b50813567ffffffffffffffff81111561199b57600080fd5b6020830191508360208260051b85010111156119b657600080fd5b9250929050565b600080600080600080608087890312156119d657600080fd5b86356119e18161194c565b9550602087013567ffffffffffffffff808211156119fe57600080fd5b818901915089601f830112611a1257600080fd5b813581811115611a2157600080fd5b8a602060a083028501011115611a3657600080fd5b602083019750809650506040890135915080821115611a5457600080fd5b50611a6189828a01611971565b979a9699509497949695606090950135949350505050565b7f4e487b7100000000000000000000000000000000000000000000000000000000600052603260045260246000fd5b803563ffffffff81168114611abc57600080fd5b919050565b600060a08284031215611ad357600080fd5b60405160a0810181811067ffffffffffffffff82111715611b1d577f4e487b7100000000000000000000000000000000000000000000000000000000600052604160045260246000fd5b604052611b2983611aa8565b8152611b3760208401611aa8565b6020820152611b4860408401611aa8565b6040820152611b5960608401611aa8565b60608201526080830135611b6c8161194c565b60808201529392505050565b7f4e487b7100000000000000000000000000000000000000000000000000000000600052601160045260246000fd5b63ffffffff818116838216019080821115611bc457611bc4611b78565b5092915050565b63ffffffff828116828216039080821115611bc457611bc4611b78565b600060208284031215611bfa57600080fd5b5051919050565b600060208284031215611c1357600080fd5b611c1c82611aa8565b9392505050565b81810381811115611c3657611c36611b78565b92915050565b600063ffffffff80841680611c7a577f4e487b7100000000000000000000000000000000000000000000000000000000600052601260045260246000fd5b92169190910492915050565b63ffffffff818116838216028082169190828114611ca657611ca6611b78565b50509291505056fea164736f6c6343000811000a",
    "linkReferences": {}
  },
  "methodIdentifiers": {
    "name()": "06fdde03",
    "sayMyName()": "e2523a69",
    "takeYourTurn(address,(uint32,uint32,uint32,uint32,address)[],uint256[],uint256)": "96647448"
  },
  "id": 20
}