{
  "abi": [
    {
      "inputs": [],
      "name": "sayMyName",
      "outputs": [
        {
          "internalType": "string",
          "name": "",
          "type": "string"
        }
      ],
      "stateMutability": "pure",
      "type": "function"
    },
    {
      "inputs": [
        {
          "internalType": "contract Monaco",
          "name": "monaco",
          "type": "address"
        },
        {
          "components": [
            {
              "internalType": "uint32",
              "name": "balance",
              "type": "uint32"
            },
            {
              "internalType": "uint32",
              "name": "speed",
              "type": "uint32"
            },
            {
              "internalType": "uint32",
              "name": "y",
              "type": "uint32"
            },
            {
              "internalType": "uint32",
              "name": "shield",
              "type": "uint32"
            },
            {
              "internalType": "contract ICar",
              "name": "car",
              "type": "address"
            }
          ],
          "internalType": "struct Monaco.CarData[]",
          "name": "allCars",
          "type": "tuple[]"
        },
        {
          "internalType": "uint256[]",
          "name": "",
          "type": "uint256[]"
        },
        {
          "internalType": "uint256",
          "name": "ourCarIndex",
          "type": "uint256"
        }
      ],
      "name": "takeYourTurn",
      "outputs": [],
      "stateMutability": "nonpayable",
      "type": "function"
    }
  ],
  "bytecode": {
    "object": "0x608060405234801561001057600080fd5b50610c79806100206000396000f3fe608060405234801561001057600080fd5b50600436106100365760003560e01c8063966474481461003b578063e2523a6914610050575b600080fd5b61004e610049366004610904565b610098565b005b604080518082018252600681527f4d616443617200000000000000000000000000000000000000000000000000006020820152905161008f91906109c0565b60405180910390f35b60008585838181106100ac576100ac610a2c565b905060a002018036038101906100c29190610a74565b90506000868684156100d55760006100d8565b60015b60ff168181106100ea576100ea610a2c565b905060a002018036038101906101009190610a74565b90506000878785600214610115576002610118565b60015b60ff1681811061012a5761012a610a2c565b905060a002018036038101906101409190610a74565b604080850151848201519183015192935063ffffffff90811691811682109216116000828061016c5750815b905060008315801561017c575082155b905060008161019657846101905785610198565b86610198565b875b905082156101b5576101b58e89836020015163ffffffff166101d9565b6101bf8e89610419565b6101c98e896105b7565b5050505050505050505050505050565b60058110156101e757505050565b600060056101f58382610b5a565b6101ff9190610b9c565b6101f484604001516103e86102149190610bb0565b61021e9190610bd4565b61022a906101f4610bf7565b63ffffffff1661023a9190610c1f565b6040517f54192e4100000000000000000000000000000000000000000000000000000000815260016004820152909150819073ffffffffffffffffffffffffffffffffffffffff8616906354192e4190602401602060405180830381865afa1580156102aa573d6000803e3d6000fd5b505050506040513d601f19601f820116820180604052508101906102ce9190610c36565b10801561037157506040517f54192e410000000000000000000000000000000000000000000000000000000081526001600482015261037190849073ffffffffffffffffffffffffffffffffffffffff8716906354192e41906024015b602060405180830381865afa158015610348573d6000803e3d6000fd5b505050506040513d601f19601f8201168201806040525081019061036c9190610c36565b61085e565b15610413576040517f4e7444c40000000000000000000000000000000000000000000000000000000081526001600482015261041390849073ffffffffffffffffffffffffffffffffffffffff871690634e7444c4906024015b6020604051808303816000875af11580156103ea573d6000803e3d6000fd5b505050506040513d601f19601f8201168201806040525081019061040e9190610c36565b61086f565b50505050565b6040517f54192e41000000000000000000000000000000000000000000000000000000008152600160048201526105dc9073ffffffffffffffffffffffffffffffffffffffff8416906354192e4190602401602060405180830381865afa158015610488573d6000803e3d6000fd5b505050506040513d601f19601f820116820180604052508101906104ac9190610c36565b10801561055557506040517f54192e410000000000000000000000000000000000000000000000000000000081526001600482015261055590829073ffffffffffffffffffffffffffffffffffffffff8516906354192e4190602401602060405180830381865afa158015610525573d6000803e3d6000fd5b505050506040513d601f19601f820116820180604052508101906105499190610c36565b61036c906101f4610b5a565b156105b3576040517f4e7444c4000000000000000000000000000000000000000000000000000000008152600160048201526105b390829073ffffffffffffffffffffffffffffffffffffffff851690634e7444c4906024016103cb565b5050565b60006019905060006005836020015163ffffffff161061060a57600a836020015163ffffffff161061060357600f836020015163ffffffff16106105fc57600161060d565b600261060d565b600361060d565b60055b60ff16905060006064846040015163ffffffff16106106945760fa846040015163ffffffff161061068d576101f4846040015163ffffffff1610610686576102ee846040015163ffffffff161061067f576103b6846040015163ffffffff161061067857600a610697565b6005610697565b6004610697565b6003610697565b6002610697565b60015b60ff1690506000816106a98486610c1f565b6106b39190610c1f565b9050600061012c86604001516101f46106cc9190610bb0565b6106d69190610bd4565b6106e1906008610bf7565b63ffffffff1690505b6040517f503a69820000000000000000000000000000000000000000000000000000000081526001600482015261074390879073ffffffffffffffffffffffffffffffffffffffff8a169063503a69829060240161032b565b80156107dd57506040517f503a698200000000000000000000000000000000000000000000000000000000815260016004820152829073ffffffffffffffffffffffffffffffffffffffff89169063503a698290602401602060405180830381865afa1580156107b7573d6000803e3d6000fd5b505050506040513d601f19601f820116820180604052508101906107db9190610c36565b105b80156107f2575080866020015163ffffffff16105b15610855576040517f361401f40000000000000000000000000000000000000000000000000000000081526001600482015261085090879073ffffffffffffffffffffffffffffffffffffffff8a169063361401f4906024016103cb565b6106ea565b50505050505050565b815163ffffffff1681105b92915050565b8062ffffff16826000018181516108869190610c4f565b63ffffffff169052505050565b73ffffffffffffffffffffffffffffffffffffffff811681146108b557600080fd5b50565b60008083601f8401126108ca57600080fd5b50813567ffffffffffffffff8111156108e257600080fd5b6020830191508360208260051b85010111156108fd57600080fd5b9250929050565b6000806000806000806080878903121561091d57600080fd5b863561092881610893565b9550602087013567ffffffffffffffff8082111561094557600080fd5b818901915089601f83011261095957600080fd5b81358181111561096857600080fd5b8a602060a08302850101111561097d57600080fd5b60208301975080965050604089013591508082111561099b57600080fd5b506109a889828a016108b8565b979a9699509497949695606090950135949350505050565b600060208083528351808285015260005b818110156109ed578581018301518582016040015282016109d1565b5060006040828601015260407fffffffffffffffffffffffffffffffffffffffffffffffffffffffffffffffe0601f8301168501019250505092915050565b7f4e487b7100000000000000000000000000000000000000000000000000000000600052603260045260246000fd5b803563ffffffff81168114610a6f57600080fd5b919050565b600060a08284031215610a8657600080fd5b60405160a0810181811067ffffffffffffffff82111715610ad0577f4e487b7100000000000000000000000000000000000000000000000000000000600052604160045260246000fd5b604052610adc83610a5b565b8152610aea60208401610a5b565b6020820152610afb60408401610a5b565b6040820152610b0c60608401610a5b565b60608201526080830135610b1f81610893565b60808201529392505050565b7f4e487b7100000000000000000000000000000000000000000000000000000000600052601160045260246000fd5b8082018082111561086957610869610b2b565b7f4e487b7100000000000000000000000000000000000000000000000000000000600052601260045260246000fd5b600082610bab57610bab610b6d565b500490565b63ffffffff818116838216019080821115610bcd57610bcd610b2b565b5092915050565b600063ffffffff80841680610beb57610beb610b6d565b92169190910492915050565b63ffffffff818116838216028082169190828114610c1757610c17610b2b565b505092915050565b808202811582820484141761086957610869610b2b565b600060208284031215610c4857600080fd5b5051919050565b63ffffffff828116828216039080821115610bcd57610bcd610b2b56fea164736f6c6343000811000a",
    "linkReferences": {}
  },
  "methodIdentifiers": {
    "sayMyName()": "e2523a69",
    "takeYourTurn(address,(uint32,uint32,uint32,uint32,address)[],uint256[],uint256)": "96647448"
  },
  "id": 19
}