{
  "abi": [
    {
      "anonymous": false,
      "inputs": [
        {
          "indexed": true,
          "internalType": "uint256",
          "name": "turn",
          "type": "uint256"
        },
        {
          "indexed": true,
          "internalType": "contract ICar",
          "name": "car",
          "type": "address"
        },
        {
          "indexed": false,
          "internalType": "uint256",
          "name": "amount",
          "type": "uint256"
        },
        {
          "indexed": false,
          "internalType": "uint256",
          "name": "cost",
          "type": "uint256"
        }
      ],
      "name": "Accelerated",
      "type": "event"
    },
    {
      "anonymous": false,
      "inputs": [
        {
          "indexed": true,
          "internalType": "uint256",
          "name": "turn",
          "type": "uint256"
        },
        {
          "indexed": true,
          "internalType": "contract ICar",
          "name": "car",
          "type": "address"
        },
        {
          "indexed": false,
          "internalType": "uint256",
          "name": "cost",
          "type": "uint256"
        },
        {
          "indexed": false,
          "internalType": "uint256",
          "name": "y",
          "type": "uint256"
        }
      ],
      "name": "Banana",
      "type": "event"
    },
    {
      "anonymous": false,
      "inputs": [
        {
          "indexed": true,
          "internalType": "uint256",
          "name": "turn",
          "type": "uint256"
        },
        {
          "indexed": true,
          "internalType": "contract ICar",
          "name": "winner",
          "type": "address"
        }
      ],
      "name": "Dub",
      "type": "event"
    },
    {
      "anonymous": false,
      "inputs": [
        {
          "indexed": true,
          "internalType": "uint256",
          "name": "turn",
          "type": "uint256"
        },
        {
          "indexed": true,
          "internalType": "contract ICar",
          "name": "car",
          "type": "address"
        }
      ],
      "name": "Punished",
      "type": "event"
    },
    {
      "anonymous": false,
      "inputs": [
        {
          "indexed": true,
          "internalType": "uint256",
          "name": "turn",
          "type": "uint256"
        },
        {
          "indexed": true,
          "internalType": "contract ICar",
          "name": "car",
          "type": "address"
        }
      ],
      "name": "Registered",
      "type": "event"
    },
    {
      "anonymous": false,
      "inputs": [
        {
          "indexed": true,
          "internalType": "uint256",
          "name": "turn",
          "type": "uint256"
        },
        {
          "indexed": true,
          "internalType": "contract ICar",
          "name": "car",
          "type": "address"
        }
      ],
      "name": "Rewarded",
      "type": "event"
    },
    {
      "anonymous": false,
      "inputs": [
        {
          "indexed": true,
          "internalType": "uint256",
          "name": "turn",
          "type": "uint256"
        },
        {
          "indexed": true,
          "internalType": "contract ICar",
          "name": "smoker",
          "type": "address"
        },
        {
          "indexed": true,
          "internalType": "contract ICar",
          "name": "smoked",
          "type": "address"
        },
        {
          "indexed": false,
          "internalType": "uint256",
          "name": "amount",
          "type": "uint256"
        },
        {
          "indexed": false,
          "internalType": "uint256",
          "name": "cost",
          "type": "uint256"
        }
      ],
      "name": "Shelled",
      "type": "event"
    },
    {
      "anonymous": false,
      "inputs": [
        {
          "indexed": true,
          "internalType": "uint256",
          "name": "turn",
          "type": "uint256"
        },
        {
          "indexed": true,
          "internalType": "contract ICar",
          "name": "car",
          "type": "address"
        },
        {
          "indexed": false,
          "internalType": "uint256",
          "name": "amount",
          "type": "uint256"
        },
        {
          "indexed": false,
          "internalType": "uint256",
          "name": "cost",
          "type": "uint256"
        }
      ],
      "name": "Shielded",
      "type": "event"
    },
    {
      "anonymous": false,
      "inputs": [
        {
          "indexed": true,
          "internalType": "uint256",
          "name": "turn",
          "type": "uint256"
        },
        {
          "components": [
            {
              "internalType": "uint32",
              "name": "balance",
              "type": "uint32"
            },
            {
              "internalType": "uint32",
              "name": "speed",
              "type": "uint32"
            },
            {
              "internalType": "uint32",
              "name": "y",
              "type": "uint32"
            },
            {
              "internalType": "uint32",
              "name": "shield",
              "type": "uint32"
            },
            {
              "internalType": "contract ICar",
              "name": "car",
              "type": "address"
            }
          ],
          "indexed": false,
          "internalType": "struct Monaco.CarData[]",
          "name": "cars",
          "type": "tuple[]"
        },
        {
          "indexed": false,
          "internalType": "uint256",
          "name": "acceleratePrice",
          "type": "uint256"
        },
        {
          "indexed": false,
          "internalType": "uint256",
          "name": "shellPrice",
          "type": "uint256"
        },
        {
          "indexed": false,
          "internalType": "uint256",
          "name": "shieldPrice",
          "type": "uint256"
        }
      ],
      "name": "TurnCompleted",
      "type": "event"
    },
    {
      "inputs": [
        {
          "internalType": "uint256",
          "name": "",
          "type": "uint256"
        }
      ],
      "name": "bananas",
      "outputs": [
        {
          "internalType": "uint256",
          "name": "",
          "type": "uint256"
        }
      ],
      "stateMutability": "view",
      "type": "function"
    },
    {
      "inputs": [
        {
          "internalType": "uint256",
          "name": "amount",
          "type": "uint256"
        }
      ],
      "name": "buyAcceleration",
      "outputs": [
        {
          "internalType": "uint256",
          "name": "cost",
          "type": "uint256"
        }
      ],
      "stateMutability": "nonpayable",
      "type": "function"
    },
    {
      "inputs": [],
      "name": "buyBanana",
      "outputs": [
        {
          "internalType": "uint256",
          "name": "cost",
          "type": "uint256"
        }
      ],
      "stateMutability": "nonpayable",
      "type": "function"
    },
    {
      "inputs": [
        {
          "internalType": "uint256",
          "name": "amount",
          "type": "uint256"
        }
      ],
      "name": "buyShell",
      "outputs": [
        {
          "internalType": "uint256",
          "name": "cost",
          "type": "uint256"
        }
      ],
      "stateMutability": "nonpayable",
      "type": "function"
    },
    {
      "inputs": [
        {
          "internalType": "uint256",
          "name": "amount",
          "type": "uint256"
        }
      ],
      "name": "buyShield",
      "outputs": [
        {
          "internalType": "uint256",
          "name": "cost",
          "type": "uint256"
        }
      ],
      "stateMutability": "nonpayable",
      "type": "function"
    },
    {
      "inputs": [
        {
          "internalType": "uint256",
          "name": "amount",
          "type": "uint256"
        }
      ],
      "name": "buySuperShell",
      "outputs": [
        {
          "internalType": "uint256",
          "name": "cost",
          "type": "uint256"
        }
      ],
      "stateMutability": "nonpayable",
      "type": "function"
    },
    {
      "inputs": [
        {
          "internalType": "uint256",
          "name": "",
          "type": "uint256"
        }
      ],
      "name": "cars",
      "outputs": [
        {
          "internalType": "contract ICar",
          "name": "",
          "type": "address"
        }
      ],
      "stateMutability": "view",
      "type": "function"
    },
    {
      "inputs": [],
      "name": "currentCar",
      "outputs": [
        {
          "internalType": "contract ICar",
          "name": "",
          "type": "address"
        }
      ],
      "stateMutability": "view",
      "type": "function"
    },
    {
      "inputs": [],
      "name": "entropy",
      "outputs": [
        {
          "internalType": "uint72",
          "name": "",
          "type": "uint72"
        }
      ],
      "stateMutability": "view",
      "type": "function"
    },
    {
      "inputs": [
        {
          "internalType": "uint256",
          "name": "amount",
          "type": "uint256"
        }
      ],
      "name": "getAccelerateCost",
      "outputs": [
        {
          "internalType": "uint256",
          "name": "sum",
          "type": "uint256"
        }
      ],
      "stateMutability": "view",
      "type": "function"
    },
    {
      "inputs": [
        {
          "internalType": "enum Monaco.ActionType",
          "name": "",
          "type": "uint8"
        }
      ],
      "name": "getActionsSold",
      "outputs": [
        {
          "internalType": "uint256",
          "name": "",
          "type": "uint256"
        }
      ],
      "stateMutability": "view",
      "type": "function"
    },
    {
      "inputs": [],
      "name": "getAllCarData",
      "outputs": [
        {
          "components": [
            {
              "internalType": "uint32",
              "name": "balance",
              "type": "uint32"
            },
            {
              "internalType": "uint32",
              "name": "speed",
              "type": "uint32"
            },
            {
              "internalType": "uint32",
              "name": "y",
              "type": "uint32"
            },
            {
              "internalType": "uint32",
              "name": "shield",
              "type": "uint32"
            },
            {
              "internalType": "contract ICar",
              "name": "car",
              "type": "address"
            }
          ],
          "internalType": "struct Monaco.CarData[]",
          "name": "results",
          "type": "tuple[]"
        }
      ],
      "stateMutability": "view",
      "type": "function"
    },
    {
      "inputs": [
        {
          "internalType": "contract ICar",
          "name": "carToFind",
          "type": "address"
        }
      ],
      "name": "getAllCarDataAndFindCar",
      "outputs": [
        {
          "components": [
            {
              "internalType": "uint32",
              "name": "balance",
              "type": "uint32"
            },
            {
              "internalType": "uint32",
              "name": "speed",
              "type": "uint32"
            },
            {
              "internalType": "uint32",
              "name": "y",
              "type": "uint32"
            },
            {
              "internalType": "uint32",
              "name": "shield",
              "type": "uint32"
            },
            {
              "internalType": "contract ICar",
              "name": "car",
              "type": "address"
            }
          ],
          "internalType": "struct Monaco.CarData[]",
          "name": "results",
          "type": "tuple[]"
        },
        {
          "internalType": "uint256",
          "name": "foundCarIndex",
          "type": "uint256"
        }
      ],
      "stateMutability": "view",
      "type": "function"
    },
    {
      "inputs": [],
      "name": "getBananaCost",
      "outputs": [
        {
          "internalType": "uint256",
          "name": "sum",
          "type": "uint256"
        }
      ],
      "stateMutability": "view",
      "type": "function"
    },
    {
      "inputs": [
        {
          "internalType": "contract ICar",
          "name": "",
          "type": "address"
        }
      ],
      "name": "getCarData",
      "outputs": [
        {
          "internalType": "uint32",
          "name": "balance",
          "type": "uint32"
        },
        {
          "internalType": "uint32",
          "name": "speed",
          "type": "uint32"
        },
        {
          "internalType": "uint32",
          "name": "y",
          "type": "uint32"
        },
        {
          "internalType": "uint32",
          "name": "shield",
          "type": "uint32"
        },
        {
          "internalType": "contract ICar",
          "name": "car",
          "type": "address"
        }
      ],
      "stateMutability": "view",
      "type": "function"
    },
    {
      "inputs": [
        {
          "internalType": "uint256",
          "name": "amount",
          "type": "uint256"
        }
      ],
      "name": "getShellCost",
      "outputs": [
        {
          "internalType": "uint256",
          "name": "sum",
          "type": "uint256"
        }
      ],
      "stateMutability": "view",
      "type": "function"
    },
    {
      "inputs": [
        {
          "internalType": "uint256",
          "name": "amount",
          "type": "uint256"
        }
      ],
      "name": "getShieldCost",
      "outputs": [
        {
          "internalType": "uint256",
          "name": "sum",
          "type": "uint256"
        }
      ],
      "stateMutability": "view",
      "type": "function"
    },
    {
      "inputs": [
        {
          "internalType": "uint256",
          "name": "amount",
          "type": "uint256"
        }
      ],
      "name": "getSuperShellCost",
      "outputs": [
        {
          "internalType": "uint256",
          "name": "sum",
          "type": "uint256"
        }
      ],
      "stateMutability": "view",
      "type": "function"
    },
    {
      "inputs": [
        {
          "internalType": "uint256",
          "name": "turnsToPlay",
          "type": "uint256"
        }
      ],
      "name": "play",
      "outputs": [],
      "stateMutability": "nonpayable",
      "type": "function"
    },
    {
      "inputs": [
        {
          "internalType": "contract ICar",
          "name": "car",
          "type": "address"
        }
      ],
      "name": "register",
      "outputs": [],
      "stateMutability": "nonpayable",
      "type": "function"
    },
    {
      "inputs": [],
      "name": "state",
      "outputs": [
        {
          "internalType": "enum Monaco.State",
          "name": "",
          "type": "uint8"
        }
      ],
      "stateMutability": "view",
      "type": "function"
    },
    {
      "inputs": [],
      "name": "turns",
      "outputs": [
        {
          "internalType": "uint16",
          "name": "",
          "type": "uint16"
        }
      ],
      "stateMutability": "view",
      "type": "function"
    }
  ],
  "bytecode": {
    "object": "0x60806040526000805462ffff00191661010017905534801561002057600080fd5b506133a6806100306000396000f3fe608060405234801561001057600080fd5b50600436106101825760003560e01c8063503a6982116100d85780636898f82b1161008c578063c19d93fb11610066578063c19d93fb14610426578063f7746e3614610440578063f9fa47ee1461045357600080fd5b80636898f82b1461033e578063728313c9146103515780639d18e79f1461036457600080fd5b806359786966116100bd5780635978696614610310578063647ba7951461032357806366d3b3f01461033657600080fd5b8063503a6982146102ea57806354192e41146102fd57600080fd5b806337c0d8d31161013a5780634420e486116101145780634420e4861461028c57806347ce07cc146102a15780634e7444c4146102d757600080fd5b806337c0d8d31461023e5780633be4a2c414610253578063401c03471461026657600080fd5b80631c7831bd1161016b5780631c7831bd146101c357806329af11bf146101d6578063361401f41461022b57600080fd5b806302404fcb146101875780630d93582a146101a2575b600080fd5b61018f610473565b6040519081526020015b60405180910390f35b6101b56101b036600461306e565b6106ac565b604051610199929190613135565b61018f6101d1366004613157565b610848565b600054610206906c01000000000000000000000000900473ffffffffffffffffffffffffffffffffffffffff1681565b60405173ffffffffffffffffffffffffffffffffffffffff9091168152602001610199565b61018f610239366004613157565b610c7a565b610246610ea2565b6040516101999190613170565b61018f610261366004613157565b611003565b60005461027990610100900461ffff1681565b60405161ffff9091168152602001610199565b61029f61029a36600461306e565b611024565b005b6000546102bd906301000000900468ffffffffffffffffff1681565b60405168ffffffffffffffffff9091168152602001610199565b61018f6102e5366004613157565b611373565b61018f6102f8366004613157565b611932565b61018f61030b366004613157565b6119c0565b61018f61031e366004613157565b611a4a565b61018f610331366004613157565b611aa2565b61018f611afd565b61029f61034c366004613157565b611b62565b61018f61035f366004613157565b61234c565b6103d961037236600461306e565b6004602052600090815260409020805460019091015463ffffffff8083169264010000000081048216926801000000000000000082048316926c010000000000000000000000009092049091169073ffffffffffffffffffffffffffffffffffffffff1685565b6040805163ffffffff9687168152948616602086015292851692840192909252909216606082015273ffffffffffffffffffffffffffffffffffffffff909116608082015260a001610199565b6000546104339060ff1681565b60405161019991906131b2565b61020661044e366004613157565b612575565b61018f6104613660046131f3565b60026020526000908152604090205481565b6000600160005460ff16600281111561048e5761048e613183565b146104fa576040517f08c379a000000000000000000000000000000000000000000000000000000000815260206004820152600f60248201527f47414d455f4e4f545f414354495645000000000000000000000000000000000060448201526064015b60405180910390fd5b6000546c01000000000000000000000000900473ffffffffffffffffffffffffffffffffffffffff16331461058b576040517f08c379a000000000000000000000000000000000000000000000000000000000815260206004820152600f60248201527f4e4f545f43555252454e545f434152000000000000000000000000000000000060448201526064016104f1565b610593611afd565b3360009081526004602052604090209091506105ae826125ac565b815482906000906105c690849063ffffffff16613214565b825463ffffffff91821661010093840a90810290830219909116179092558354600180548082018255680100000000000000009092049093167fb10e2d527612073b26eecdfd717e6a320cf44b4afac2b0732d9fcbe2b7fa0cf690910181905560036000908152600260209081527f88601476d11616a71c5be67555bd1dff4b1cbf21533d2669b768b61518cfe1c3805490950190945554604080518881529485018390528051929550339461ffff9490920493909316927f81639e3c32f7df2f89f2cf74ed9fdb2d65c08f4fea698b924848179bc966609592918290030190a3505090565b6040805160038082526080820190925260609160009190816020015b6040805160a0810182526000808252602080830182905292820181905260608201819052608082015282527fffffffffffffffffffffffffffffffffffffffffffffffffffffffffffffffff9092019101816106c8579050509150600061072d6125c3565b905060005b600381101561084157600082828151811061074f5761074f61325f565b602002602001015190508573ffffffffffffffffffffffffffffffffffffffff168173ffffffffffffffffffffffffffffffffffffffff1603610790578193505b73ffffffffffffffffffffffffffffffffffffffff808216600090815260046020908152604091829020825160a081018452815463ffffffff808216835264010000000082048116948301949094526801000000000000000081048416948201949094526c010000000000000000000000009093049091166060830152600101549091166080820152855186908490811061082d5761082d61325f565b602090810291909101015250600101610732565b5050915091565b6000600160005460ff16600281111561086357610863613183565b146108ca576040517f08c379a000000000000000000000000000000000000000000000000000000000815260206004820152600f60248201527f47414d455f4e4f545f414354495645000000000000000000000000000000000060448201526064016104f1565b6000546c01000000000000000000000000900473ffffffffffffffffffffffffffffffffffffffff16331461095b576040517f08c379a000000000000000000000000000000000000000000000000000000000815260206004820152600f60248201527f4e4f545f43555252454e545f434152000000000000000000000000000000000060448201526064016104f1565b816000036109c5576040517f08c379a000000000000000000000000000000000000000000000000000000000815260206004820152601e60248201527f594f555f43414e545f4255595f5a45524f5f53555045525f5348454c4c53000060448201526064016104f1565b6109ce82611aa2565b3360009081526004602052604090209091506109e9826125ac565b81548290600090610a0190849063ffffffff16613214565b82546101009290920a63ffffffff8181021990931691831602179091558254600260008181526020919091527f679795a0195a1b76cdebb7c51d74e058aee92919b8c3389af86ef24535e8a28c8054880190556801000000000000000090910490911691505b6003811015610bfa5760006004600060038481548110610a8957610a8961325f565b600091825260208083209091015473ffffffffffffffffffffffffffffffffffffffff9081168452838201949094526040928301909120825160a081018452815463ffffffff8082168352640100000000820481169483019490945268010000000000000000810484169482018590526c01000000000000000000000000900490921660608301526001015490921660808301529091508310610b2c5750610bf2565b600163ffffffff16816020015163ffffffff161115610bf05760808101805173ffffffffffffffffffffffffffffffffffffffff908116600090815260046020908152604080832080546401000000007fffffffffffffffffffffffffffffffffffffffffffffffff00000000ffffffff9091161790559351915484518b81529182018a90529190921692339261010090920461ffff16917f8bf88a7d93d9907c8bd24e204d8e69d0703a0c1940305ced70d7eff7328535d5910160405180910390a45b505b600101610a67565b5060015460005b81811015610c71578260018281548110610c1d57610c1d61325f565b90600052602060002001541115610c69575b81811015610c69576001805480610c4857610c4861328e565b60019003818190600052602060002001600090559055806001019050610c2f565b600101610c01565b50505050919050565b6000600160005460ff166002811115610c9557610c95613183565b14610cfc576040517f08c379a000000000000000000000000000000000000000000000000000000000815260206004820152600f60248201527f47414d455f4e4f545f414354495645000000000000000000000000000000000060448201526064016104f1565b6000546c01000000000000000000000000900473ffffffffffffffffffffffffffffffffffffffff163314610d8d576040517f08c379a000000000000000000000000000000000000000000000000000000000815260206004820152600f60248201527f4e4f545f43555252454e545f434152000000000000000000000000000000000060448201526064016104f1565b610d9682611932565b336000908152600460205260409020909150610db1826125ac565b81548290600090610dc990849063ffffffff16613214565b82546101009290920a63ffffffff81810219909316918316021790915582547fffffffffffffffffffffffffffffffffffffffffffffffff00000000ffffffff8116640100000000918290048316870190921602178255508260026000806004811115610e3857610e38613183565b81526020808201929092526040908101600090812080549490940190935591548251868152918201859052339261010090910461ffff16917ff7b74f6ee5bd099d62edcf9cbfcc1e3948b3073fc223e723d23c669f6360ed1391015b60405180910390a350919050565b60408051600380825260808201909252606091816020015b6040805160a0810182526000808252602080830182905292820181905260608201819052608082015282527fffffffffffffffffffffffffffffffffffffffffffffffffffffffffffffffff909201910181610eba5790505090506000610f1f6125c3565b905060005b6003811015610ffe5760046000838381518110610f4357610f4361325f565b60209081029190910181015173ffffffffffffffffffffffffffffffffffffffff9081168352828201939093526040918201600020825160a081018452815463ffffffff808216835264010000000082048116948301949094526801000000000000000081048416948201949094526c0100000000000000000000000090930490911660608301526001015490911660808201528351849083908110610feb57610feb61325f565b6020908102919091010152600101610f24565b505090565b6001818154811061101357600080fd5b600091825260209091200154905081565b73ffffffffffffffffffffffffffffffffffffffff81811660009081526004602052604090206001015416156110b6576040517f08c379a000000000000000000000000000000000000000000000000000000000815260206004820152600f60248201527f444f55424c455f5245474953544552000000000000000000000000000000000060448201526064016104f1565b6040805160a081018252613a988152600060208083018281528385018381526060850184815273ffffffffffffffffffffffffffffffffffffffff8089166080880181815281885260049096529786209651875494519351925163ffffffff9081166c01000000000000000000000000027fffffffffffffffffffffffffffffffff00000000ffffffffffffffffffffffff9482166801000000000000000002949094167fffffffffffffffffffffffffffffffff0000000000000000ffffffffffffffff958216640100000000027fffffffffffffffffffffffffffffffffffffffffffffffff00000000000000009097169290911691909117949094179290921692909217919091178455905160019384018054919092167fffffffffffffffffffffffff000000000000000000000000000000000000000091821617909155600380549384018155918290527fc2575a0e9e593c00f959f8c92f12db2869c3395a3b0502d05e2516446f71f85b90920180549092169092179055547ffffffffffffffffffffffffffffffffffffffffffffffffffffffffffffffffd81016112c257600080547fffffffffffffffffffffffffffffffffffffffffffffffffffffffffffffff0068ffffffffffffffffff4216630100000002167fffffffffffffffffffffffffffffffffffffffff000000000000000000ffff0090911617600117905561132c565b6003811061132c576040517f08c379a000000000000000000000000000000000000000000000000000000000815260206004820152600b60248201527f4d41585f504c415945525300000000000000000000000000000000000000000060448201526064016104f1565b60405173ffffffffffffffffffffffffffffffffffffffff8316906000907f6cd8594df6446610564bf1ea1e804402ea0006dc7b541d3a430d1ea0a62cffd4908290a35050565b6000600160005460ff16600281111561138e5761138e613183565b146113f5576040517f08c379a000000000000000000000000000000000000000000000000000000000815260206004820152600f60248201527f47414d455f4e4f545f414354495645000000000000000000000000000000000060448201526064016104f1565b6000546c01000000000000000000000000900473ffffffffffffffffffffffffffffffffffffffff163314611486576040517f08c379a000000000000000000000000000000000000000000000000000000000815260206004820152600f60248201527f4e4f545f43555252454e545f434152000000000000000000000000000000000060448201526064016104f1565b816000036114f0576040517f08c379a000000000000000000000000000000000000000000000000000000000815260206004820152601860248201527f594f555f43414e545f4255595f5a45524f5f5348454c4c53000000000000000060448201526064016104f1565b6114f9826119c0565b336000908152600460205260409020909150611514826125ac565b8154829060009061152c90849063ffffffff16613214565b82546101009290920a63ffffffff81810219909316918316021790915582546001600090815260026020527fe90b7bceb6e7df5418fb78d8ee546e97c83a08bbccc01a0644d599ccd2a7c2e08054880190556801000000000000000090910490911691507fffffffffffffffffffffffffffffffffffffffffffffffffffffffffffffffff815b60038110156116a457600060046000600384815481106115d5576115d561325f565b600091825260208083209091015473ffffffffffffffffffffffffffffffffffffffff9081168452838201949094526040928301909120825160a081018452815463ffffffff8082168352640100000000820481169483019490945268010000000000000000810484169482018590526c01000000000000000000000000900490921660608301526001015490921660808301529091508510611678575061169c565b604081015163ffffffff168590038381101561169957816080015194508093505b50505b6001016115b3565b5060015460005b818110156117715784600182815481106116c7576116c761325f565b9060005260206000200154111561176957828501600182815481106116ee576116ee61325f565b906000526020600020015411611771576001808303815481106117135761171361325f565b9060005260206000200154600182815481106117315761173161325f565b600091825260209091200155600180548061174e5761174e61328e565b60019003818190600052602060002001600090559055600093505b6001016116ab565b5073ffffffffffffffffffffffffffffffffffffffff8316156119285773ffffffffffffffffffffffffffffffffffffffff83166000908152600460205260409020546c01000000000000000000000000900463ffffffff161561184e5784546401000000007fffffffffffffffffffffffffffffffffffffffffffffffff00000000ffffffff90911617855560005460408051898152602081018990523392839261010090910461ffff16917f8bf88a7d93d9907c8bd24e204d8e69d0703a0c1940305ced70d7eff7328535d5910160405180910390a4611928565b73ffffffffffffffffffffffffffffffffffffffff8316600090815260046020526040902054600164010000000090910463ffffffff1611156119285773ffffffffffffffffffffffffffffffffffffffff8316600081815260046020908152604080832080546401000000007fffffffffffffffffffffffffffffffffffffffffffffffff00000000ffffffff909116179055915482518b81529182018a9052339261010090910461ffff16917f8bf88a7d93d9907c8bd24e204d8e69d0703a0c1940305ced70d7eff7328535d5910160405180910390a45b5050505050919050565b6000805b828110156119ba576119ae678ac7230489e80000670494654067e10000600060019054906101000a900461ffff1661ffff16846002600080600481111561197f5761197f613183565b600481111561199057611990613183565b81526020019081526020016000205401671bc16d674ec800006127fe565b90910190600101611936565b50919050565b6000805b828110156119ba57611a3e680ad78ebc5ac6200000670494654067e10000600060019054906101000a900461ffff1661ffff16846002600060016004811115611a0f57611a0f613183565b6004811115611a2057611a20613183565b815260200190815260200160002054016702c68af0bb1400006127fe565b909101906001016119c4565b6000805b828110156119ba5760008054611a969168056bc75e2d6310000091610100900461ffff16846002836004815260200190815260200160002054016706f05b59d3b200006127fe565b90910190600101611a4e565b6000805b828110156119ba57611af1681043561a88293000006704db732547630000600060019054906101000a900461ffff1661ffff16846002600060026004811115611a0f57611a0f613183565b90910190600101611aa6565b600080546003825260026020527f88601476d11616a71c5be67555bd1dff4b1cbf21533d2669b768b61518cfe1c354611b5d91680ad78ebc5ac620000091670494654067e1000091610100900461ffff16906702c68af0bb1400006127fe565b905090565b600160005460ff166002811115611b7b57611b7b613183565b14611be2576040517f08c379a000000000000000000000000000000000000000000000000000000000815260206004820152600f60248201527f47414d455f4e4f545f414354495645000000000000000000000000000000000060448201526064016104f1565b80156123495760006003805480602002602001604051908101604052809291908181526020018280548015611c4d57602002820191906000526020600020905b815473ffffffffffffffffffffffffffffffffffffffff168152600190910190602001808311611c22575b50506000805494955061010090940461ffff1693925084915060039050830681518110611c7c57611c7c61325f565b60200260200101519050600080611c92836106ac565b600080546bffffffffffffffffffffffff166c0100000000000000000000000073ffffffffffffffffffffffffffffffffffffffff8816908102919091179091556040517f9664744800000000000000000000000000000000000000000000000000000000815292945090925090639664744890621e848090611d20903090879060019088906004016132ec565b600060405180830381600088803b158015611d3a57600080fd5b5087f193505050508015611d4c575060015b50600080546bffffffffffffffffffffffff169055611d6961289c565b8051611d7d91600191602090910190612f98565b5060005b60038110156120c2576000868281518110611d9e57611d9e61325f565b60209081029190910181015173ffffffffffffffffffffffffffffffffffffffff81166000908152600490925260409091208054919250906c01000000000000000000000000900463ffffffff1615611e5a5780547fffffffffffffffffffffffffffffffffffffffffffffffffffffffffffffffff63ffffffff6c0100000000000000000000000080840482169290920116027fffffffffffffffffffffffffffffffff00000000ffffffffffffffffffffffff9091161781555b600154815463ffffffff680100000000000000008204811691640100000000900416810160005b83811015611fe657600060018281548110611e9e57611e9e61325f565b90600052602060002001549050808410611eb85750611fde565b808310611fd85785549092508290611efa90611ef59063ffffffff640100000000909104166706f05b59d3b20000670de0b6b3a764000091020590565b6125ac565b865463ffffffff91909116640100000000027fffffffffffffffffffffffffffffffffffffffffffffffff00000000ffffffff909116178655600180547fffffffffffffffffffffffffffffffffffffffffffffffffffffffffffffffff8701908110611f6957611f6961325f565b906000526020600020015460018381548110611f8757611f8761325f565b6000918252602090912001556001805480611fa457611fa461328e565b60019003818190600052602060002001600090559055611fc261289c565b8051611fd691600191602090910190612f98565b505b50611fe6565b600101611e81565b506103e8611ff3826125ac565b85547fffffffffffffffffffffffffffffffffffffffff00000000ffffffffffffffff166801000000000000000063ffffffff92909216918202178655106120b15760405173ffffffffffffffffffffffffffffffffffffffff8616908b907fdbd1b0276f9d9bb5b5c4ef9762dcff274df8d6e3a34a15f75c4335b6f1a4c32390600090a35050600080547fffffffffffffffffffffffffffffffffffffffffffffffffffffffffffffff0016600217905550505050505050505050565b505060019093019250611d81915050565b506003840660000361227f5760005b6003811015612269576000805460408051630100000090920468ffffffffffffffffff16602083015201604080518083037fffffffffffffffffffffffffffffffffffffffffffffffffffffffffffffffe00181529190528051602090910120600080547fffffffffffffffffffffffffffffffffffffffff000000000000000000ffffff16630100000068ffffffffffffffffff90931692830217815590915060038390038281612185576121856132bd565b0683019050600088848151811061219e5761219e61325f565b602002602001015190508882815181106121ba576121ba61325f565b60200260200101518985815181106121d4576121d461325f565b602002602001019073ffffffffffffffffffffffffffffffffffffffff16908173ffffffffffffffffffffffffffffffffffffffff1681525050808983815181106122215761222161325f565b602002602001019073ffffffffffffffffffffffffffffffffffffffff16908173ffffffffffffffffffffffffffffffffffffffff16815250505050508060010190506120d1565b50845161227d906003906020880190612fdf565b505b600080547fffffffffffffffffffffffffffffffffffffffffffffffffffffffffff0000ff166101006001870161ffff16908102919091179091557f7917bddd66506d921f7d884669ba815f5efb81b7719f131306ebe47019d188f46122e3610ea2565b6122ed6001611932565b6122f760016119c0565b6123016001611a4a565b604051612311949392919061336a565b60405180910390a250507fffffffffffffffffffffffffffffffffffffffffffffffffffffffffffffffff9093019250611be2915050565b50565b6000600160005460ff16600281111561236757612367613183565b146123ce576040517f08c379a000000000000000000000000000000000000000000000000000000000815260206004820152600f60248201527f47414d455f4e4f545f414354495645000000000000000000000000000000000060448201526064016104f1565b6000546c01000000000000000000000000900473ffffffffffffffffffffffffffffffffffffffff16331461245f576040517f08c379a000000000000000000000000000000000000000000000000000000000815260206004820152600f60248201527f4e4f545f43555252454e545f434152000000000000000000000000000000000060448201526064016104f1565b61246882611a4a565b336000908152600460205260409020909150612483826125ac565b8154829060009061249b90849063ffffffff16613214565b82546101009290920a63ffffffff81810219909316918316021790915582547fffffffffffffffffffffffffffffffff00000000ffffffffffffffffffffffff81166c0100000000000000000000000091829004831687016001019092160217825550826002600060048081111561251557612515613183565b81526020808201929092526040908101600090812080549490940190935591548251868152918201859052339261010090910461ffff16917f5ca9c31802614108f07c7ec1fb1c96e0bad7fc943d7644a8681a681e074aea459101610e94565b6003818154811061258557600080fd5b60009182526020909120015473ffffffffffffffffffffffffffffffffffffffff16905081565b600064010000000082106125bf57600080fd5b5090565b6060600380548060200260200160405190810160405280929190818152602001828054801561262857602002820191906000526020600020905b815473ffffffffffffffffffffffffffffffffffffffff1681526001909101906020018083116125fd575b5050505050905060005b60038110156125bf57600181015b60038110156127f5576004600084848151811061265f5761265f61325f565b602002602001015173ffffffffffffffffffffffffffffffffffffffff1673ffffffffffffffffffffffffffffffffffffffff16815260200190815260200160002060000160089054906101000a900463ffffffff1663ffffffff16600460008584815181106126d1576126d161325f565b60209081029190910181015173ffffffffffffffffffffffffffffffffffffffff1682528101919091526040016000205468010000000000000000900463ffffffff1611156127ed57600083838151811061272e5761272e61325f565b6020026020010151905083828151811061274a5761274a61325f565b60200260200101518484815181106127645761276461325f565b602002602001019073ffffffffffffffffffffffffffffffffffffffff16908173ffffffffffffffffffffffffffffffffffffffff1681525050808483815181106127b1576127b161325f565b602002602001019073ffffffffffffffffffffffffffffffffffffffff16908173ffffffffffffffffffffffffffffffffffffffff1681525050505b600101612640565b50600101612632565b6000670de0b6b3a76400006128848761287f61287a6128268a670de0b6b3a764000003612a52565b61283d670de0b6b3a764000060018b010289612d10565b670de0b6b3a76400007fffffffffffffffffffffffffffffffffffffffffffffffffffffffffffffffff8c010203670de0b6b3a764000091020590565b612d34565b612f73565b81612891576128916132bd565b049695505050505050565b606060018054806020026020016040519081016040528092919081815260200182805480156128ea57602002820191906000526020600020905b8154815260200190600101908083116128d6575b505083519394506000925050505b81811015610ffe57600181015b82811015612a495783828151811061291f5761291f61325f565b60200260200101518482815181106129395761293961325f565b60200260200101511015612a41578382815181106129595761295961325f565b60200260200101518482815181106129735761297361325f565b60200260200101511884828151811061298e5761298e61325f565b6020026020010181815250508381815181106129ac576129ac61325f565b60200260200101518483815181106129c6576129c661325f565b6020026020010151188483815181106129e1576129e161325f565b6020026020010181815250508382815181106129ff576129ff61325f565b6020026020010151848281518110612a1957612a1961325f565b602002602001015118848281518110612a3457612a3461325f565b6020026020010181815250505b600101612905565b506001016128f8565b6000808213612abd576040517f08c379a000000000000000000000000000000000000000000000000000000000815260206004820152600960248201527f554e444546494e4544000000000000000000000000000000000000000000000060448201526064016104f1565b5060606fffffffffffffffffffffffffffffffff821160071b82811c67ffffffffffffffff1060061b1782811c63ffffffff1060051b1782811c61ffff1060041b1782811c60ff10600390811b90911783811c600f1060021b1783811c909110600190811b90911783811c90911017609f81810383019390931b90921c6c465772b2bbbb5f824b15207a3081018102821d6d0388eaa27412d5aca026815d636e018102821d6d0df99ac502031bf953eff472fdcc018102821d6d13cdffb29d51d99322bdff5f2211018102821d6d0a0f742023def783a307a986912e018102821d6d01920d8043ca89b5239253284e42018102821d6c0b7a86d7375468fac667a0a527016c29508e458543d8aa4df2abee7882018202831d6d0139601a2efabe717e604cbb4894018202831d6d02247f7a7b6594320649aa03aba1018202831d7fffffffffffffffffffffffffffffffffffffff73c0c716a594e00d54e3c4cbc9018202831d7ffffffffffffffffffffffffffffffffffffffdc7b88c420e53a9890533129f6f01820290921d7fffffffffffffffffffffffffffffffffffffff465fda27eb4d63ded474e5f83201027ffffffffffffffff5f6af8f7b3396644f18e157960000000000000000000000000105711340daa0d5f769dba1915cef59f0815a5506027fffffffffffffffffffffffffffffffffffffffffffffffffffffffffffffffa0919091017d0267a36c0c95b3975ab3ee5b203a7614a3f75373f047d803ae7b6687f2b302017d57115e47018c7177eebf7cd370a3356a1b7863008a5ae8028c72b88642840160ae1d90565b670de0b6b3a7640000828102908105831482151516612d2e57600080fd5b05919050565b60007ffffffffffffffffffffffffffffffffffffffffffffffffdb731c958f34d94c18213612d6557506000919050565b680755bf798b4a1bf1e58212612dd7576040517f08c379a000000000000000000000000000000000000000000000000000000000815260206004820152600c60248201527f4558505f4f564552464c4f57000000000000000000000000000000000000000060448201526064016104f1565b6503782dace9d9604e83901b059150600060606bb17217f7d1cf79abc9e3b39884821b056b80000000000000000000000001901d6bb17217f7d1cf79abc9e3b39881029093037fffffffffffffffffffffffffffffffffffffffdbf3ccf1604d263450f02a550481018102606090811d6d0277594991cfc85f6e2461837cd9018202811d7fffffffffffffffffffffffffffffffffffffe5adedaa1cb095af9e4da10e363c018202811d6db1bbb201f443cf962f1a1d3db4a5018202811d7ffffffffffffffffffffffffffffffffffffd38dc772608b0ae56cce01296c0eb018202811d6e05180bb14799ab47a8a8cb2a527d57016d02d16720577bd19bf614176fe9ea6c10fe68e7fd37d0007b713f765084018402831d9081019084017ffffffffffffffffffffffffffffffffffffffe2c69812cf03b0763fd454a8f7e010290911d6e0587f503bb6ea29d25fcb7401964500190910279d835ebba824c98fb31b83b2ca45c000000000000000000000000010574029d9dc38563c32e5c2f6dc192ee70ef65f9978af30260c3939093039290921c92915050565b8181028215838205831417612f8757600080fd5b670de0b6b3a7640000900592915050565b828054828255906000526020600020908101928215612fd3579160200282015b82811115612fd3578251825591602001919060010190612fb8565b506125bf929150613059565b828054828255906000526020600020908101928215612fd3579160200282015b82811115612fd357825182547fffffffffffffffffffffffff00000000000000000000000000000000000000001673ffffffffffffffffffffffffffffffffffffffff909116178255602090920191600190910190612fff565b5b808211156125bf576000815560010161305a565b60006020828403121561308057600080fd5b813573ffffffffffffffffffffffffffffffffffffffff811681146130a457600080fd5b9392505050565b600081518084526020808501945080840160005b8381101561312a578151805163ffffffff9081168952848201518116858a01526040808301518216908a01526060808301519091169089015260809081015173ffffffffffffffffffffffffffffffffffffffff169088015260a090960195908201906001016130bf565b509495945050505050565b60408152600061314860408301856130ab565b90508260208301529392505050565b60006020828403121561316957600080fd5b5035919050565b6020815260006130a460208301846130ab565b7f4e487b7100000000000000000000000000000000000000000000000000000000600052602160045260246000fd5b60208101600383106131ed577f4e487b7100000000000000000000000000000000000000000000000000000000600052602160045260246000fd5b91905290565b60006020828403121561320557600080fd5b8135600581106130a457600080fd5b63ffffffff828116828216039080821115613258577f4e487b7100000000000000000000000000000000000000000000000000000000600052601160045260246000fd5b5092915050565b7f4e487b7100000000000000000000000000000000000000000000000000000000600052603260045260246000fd5b7f4e487b7100000000000000000000000000000000000000000000000000000000600052603160045260246000fd5b7f4e487b7100000000000000000000000000000000000000000000000000000000600052601260045260246000fd5b73ffffffffffffffffffffffffffffffffffffffff851681526000602060808184015261331c60808401876130ab565b83810360408501528554808252600087815283812092840191905b8181101561335357835483526001938401939285019201613337565b505080935050505082606083015295945050505050565b60808152600061337d60808301876130ab565b602083019590955250604081019290925260609091015291905056fea164736f6c6343000811000a",
    "linkReferences": {}
  },
  "methodIdentifiers": {
    "bananas(uint256)": "3be4a2c4",
    "buyAcceleration(uint256)": "361401f4",
    "buyBanana()": "02404fcb",
    "buyShell(uint256)": "4e7444c4",
    "buyShield(uint256)": "728313c9",
    "buySuperShell(uint256)": "1c7831bd",
    "cars(uint256)": "f7746e36",
    "currentCar()": "29af11bf",
    "entropy()": "47ce07cc",
    "getAccelerateCost(uint256)": "503a6982",
    "getActionsSold(uint8)": "f9fa47ee",
    "getAllCarData()": "37c0d8d3",
    "getAllCarDataAndFindCar(address)": "0d93582a",
    "getBananaCost()": "66d3b3f0",
    "getCarData(address)": "9d18e79f",
    "getShellCost(uint256)": "54192e41",
    "getShieldCost(uint256)": "59786966",
    "getSuperShellCost(uint256)": "647ba795",
    "play(uint256)": "6898f82b",
    "register(address)": "4420e486",
    "state()": "c19d93fb",
    "turns()": "401c0347"
  },
  "id": 17
}