{
  "abi": [
    {
      "inputs": [],
      "stateMutability": "nonpayable",
      "type": "constructor"
    },
    {
      "anonymous": false,
      "inputs": [
        {
          "indexed": false,
          "internalType": "address",
          "name": "",
          "type": "address"
        },
        {
          "indexed": false,
          "internalType": "enum Monaco.ActionType",
          "name": "",
          "type": "uint8"
        },
        {
          "indexed": false,
          "internalType": "uint256",
          "name": "",
          "type": "uint256"
        }
      ],
      "name": "Action",
      "type": "event"
    },
    {
      "anonymous": false,
      "inputs": [
        {
          "indexed": false,
          "internalType": "address",
          "name": "",
          "type": "address"
        }
      ],
      "name": "Idle",
      "type": "event"
    },
    {
      "inputs": [],
      "name": "actionType",
      "outputs": [
        {
          "internalType": "enum Monaco.ActionType",
          "name": "",
          "type": "uint8"
        }
      ],
      "stateMutability": "view",
      "type": "function"
    },
    {
      "inputs": [],
      "name": "amount",
      "outputs": [
        {
          "internalType": "uint256",
          "name": "",
          "type": "uint256"
        }
      ],
      "stateMutability": "view",
      "type": "function"
    },
    {
      "inputs": [],
      "name": "idle",
      "outputs": [
        {
          "internalType": "bool",
          "name": "",
          "type": "bool"
        }
      ],
      "stateMutability": "view",
      "type": "function"
    },
    {
      "inputs": [],
      "name": "sayMyName",
      "outputs": [
        {
          "internalType": "string",
          "name": "",
          "type": "string"
        }
      ],
      "stateMutability": "pure",
      "type": "function"
    },
    {
      "inputs": [
        {
          "internalType": "enum Monaco.ActionType",
          "name": "actionType_",
          "type": "uint8"
        },
        {
          "internalType": "uint256",
          "name": "amount_",
          "type": "uint256"
        }
      ],
      "name": "setAction",
      "outputs": [],
      "stateMutability": "nonpayable",
      "type": "function"
    },
    {
      "inputs": [],
      "name": "setIdle",
      "outputs": [],
      "stateMutability": "nonpayable",
      "type": "function"
    },
    {
      "inputs": [
        {
          "internalType": "contract Monaco",
          "name": "monaco",
          "type": "address"
        },
        {
          "components": [
            {
              "internalType": "uint32",
              "name": "balance",
              "type": "uint32"
            },
            {
              "internalType": "uint32",
              "name": "speed",
              "type": "uint32"
            },
            {
              "internalType": "uint32",
              "name": "y",
              "type": "uint32"
            },
            {
              "internalType": "uint32",
              "name": "shield",
              "type": "uint32"
            },
            {
              "internalType": "contract ICar",
              "name": "car",
              "type": "address"
            }
          ],
          "internalType": "struct Monaco.CarData[]",
          "name": "",
          "type": "tuple[]"
        },
        {
          "internalType": "uint256[]",
          "name": "",
          "type": "uint256[]"
        },
        {
          "internalType": "uint256",
          "name": "",
          "type": "uint256"
        }
      ],
      "name": "takeYourTurn",
      "outputs": [],
      "stateMutability": "nonpayable",
      "type": "function"
    }
  ],
  "bytecode": {
    "object": "0x608060405234801561001057600080fd5b506002805460ff191660011790556107fb8061002d6000396000f3fe608060405234801561001057600080fd5b506004361061007d5760003560e01c8063a494817b1161005b578063a494817b146100d7578063aa8c217c14610107578063e2523a691461011e578063f0cb47be1461015d57600080fd5b8063247492f8146100825780633192164f146100a557806396647448146100c2575b600080fd5b60005461008f9060ff1681565b60405161009c91906105cc565b60405180910390f35b6002546100b29060ff1681565b604051901515815260200161009c565b6100d56100d036600461062c565b610170565b005b6100d5600280547fffffffffffffffffffffffffffffffffffffffffffffffffffffffffffffff00166001179055565b61011060015481565b60405190815260200161009c565b604080518082018252600781527f4d6f636b436172000000000000000000000000000000000000000000000000006020820152905161009c9190610701565b6100d561016b36600461076d565b6104f2565b60025460ff16156101b3576040513081527fecd64b370f34bea27a260cc68d9c11e4a7505be15c144c1663ca7474bd3f1d279060200160405180910390a16104ea565b6000805460ff1660048111156101cb576101cb610562565b0361026c576001546040517f361401f4000000000000000000000000000000000000000000000000000000008152600481019190915273ffffffffffffffffffffffffffffffffffffffff87169063361401f4906024015b6020604051808303816000875af1158015610242573d6000803e3d6000fd5b505050506040513d601f19601f82011682018060405250810190610266919061079d565b50610476565b600160005460ff16600481111561028557610285610562565b036102e1576001546040517f4e7444c4000000000000000000000000000000000000000000000000000000008152600481019190915273ffffffffffffffffffffffffffffffffffffffff871690634e7444c490602401610223565b600260005460ff1660048111156102fa576102fa610562565b03610356576001546040517f1c7831bd000000000000000000000000000000000000000000000000000000008152600481019190915273ffffffffffffffffffffffffffffffffffffffff871690631c7831bd90602401610223565b600360005460ff16600481111561036f5761036f610562565b036103c1578573ffffffffffffffffffffffffffffffffffffffff166302404fcb6040518163ffffffff1660e01b81526004016020604051808303816000875af1158015610242573d6000803e3d6000fd5b600460005460ff1660048111156103da576103da610562565b03610476576001546040517f728313c9000000000000000000000000000000000000000000000000000000008152600481019190915273ffffffffffffffffffffffffffffffffffffffff87169063728313c9906024016020604051808303816000875af1158015610450573d6000803e3d6000fd5b505050506040513d601f19601f82011682018060405250810190610474919061079d565b505b6000546001546040517f4f34f5b8a90a4f8ae5487a04d1a3a4a4671919b763d3870ebe370eee79b46edf926104b292309260ff909216916107b6565b60405180910390a16104ea600280547fffffffffffffffffffffffffffffffffffffffffffffffffffffffffffffff00166001179055565b505050505050565b600080548391907fffffffffffffffffffffffffffffffffffffffffffffffffffffffffffffff0016600183600481111561052f5761052f610562565b021790555060015550600280547fffffffffffffffffffffffffffffffffffffffffffffffffffffffffffffff00169055565b7f4e487b7100000000000000000000000000000000000000000000000000000000600052602160045260246000fd5b600581106105c8577f4e487b7100000000000000000000000000000000000000000000000000000000600052602160045260246000fd5b9052565b602081016105da8284610591565b92915050565b60008083601f8401126105f257600080fd5b50813567ffffffffffffffff81111561060a57600080fd5b6020830191508360208260051b850101111561062557600080fd5b9250929050565b6000806000806000806080878903121561064557600080fd5b863573ffffffffffffffffffffffffffffffffffffffff8116811461066957600080fd5b9550602087013567ffffffffffffffff8082111561068657600080fd5b818901915089601f83011261069a57600080fd5b8135818111156106a957600080fd5b8a602060a0830285010111156106be57600080fd5b6020830197508096505060408901359150808211156106dc57600080fd5b506106e989828a016105e0565b979a9699509497949695606090950135949350505050565b600060208083528351808285015260005b8181101561072e57858101830151858201604001528201610712565b5060006040828601015260407fffffffffffffffffffffffffffffffffffffffffffffffffffffffffffffffe0601f8301168501019250505092915050565b6000806040838503121561078057600080fd5b82356005811061078f57600080fd5b946020939093013593505050565b6000602082840312156107af57600080fd5b5051919050565b73ffffffffffffffffffffffffffffffffffffffff84168152606081016107e06020830185610591565b82604083015294935050505056fea164736f6c6343000811000a",
    "linkReferences": {}
  },
  "methodIdentifiers": {
    "actionType()": "247492f8",
    "amount()": "aa8c217c",
    "idle()": "3192164f",
    "sayMyName()": "e2523a69",
    "setAction(uint8,uint256)": "f0cb47be",
    "setIdle()": "a494817b",
    "takeYourTurn(address,(uint32,uint32,uint32,uint32,address)[],uint256[],uint256)": "96647448"
  },
  "id": 25
}